8=FIX.4.1,9=108,35=D,34=5,49=BANZAI,52=20121105-23:25:12,56=EXEC,11=1352157912357,21=1,38=10000,40=2,44=10,54=1,55=SPY,59=0,10=003,
8=FIX.4.1,9=112,35=G,34=6,49=BANZAI,52=20121105-23:25:16,56=EXEC,11=1352157916437,41=1352157912357,21=1,38=12000,40=2,44=10.01,54=1,55=SPY,10=198,
8=FIX.4.1,9=104,35=F,34=7,49=BANZAI,52=20121105-23:25:25,56=EXEC,11=1352157925309,38=10000,41=1352157912357,54=1,55=SPY,10=197,
